{
  "_format": "hh-sol-artifact-1",
  "contractName": "Counter",
  "sourceName": "contracts/Counter.sol",
  "abi": [
    {
      "inputs": [],
      "stateMutability": "nonpayable",
      "type": "constructor"
    },
    {
      "anonymous": false,
      "inputs": [
        {
          "indexed": false,
          "internalType": "uint256",
          "name": "count",
          "type": "uint256"
        },
        {
          "indexed": false,
          "internalType": "uint256",
          "name": "when",
          "type": "uint256"
        }
      ],
      "name": "CountUpdate",
      "type": "event"
    },
    {
      "inputs": [],
      "name": "count",
      "outputs": [
        {
          "internalType": "uint256",
          "name": "",
          "type": "uint256"
        }
      ],
      "stateMutability": "view",
      "type": "function"
    },
    {
      "inputs": [],
      "name": "decreaseCount",
      "outputs": [],
      "stateMutability": "nonpayable",
      "type": "function"
    },
    {
      "inputs": [],
      "name": "increaseCount",
      "outputs": [],
      "stateMutability": "nonpayable",
      "type": "function"
    }
  ],
  "bytecode": "0x6080604052348015600f57600080fd5b5060008081905550610315806100266000396000f3fe608060405234801561001057600080fd5b50600436106100415760003560e01c806306661abd14610046578063abd1b73d14610064578063e834cbb31461006e575b600080fd5b61004e610078565b60405161005b9190610187565b60405180910390f35b61006c61007e565b005b6100766100d4565b005b60005481565b600160008082825461009091906101d1565b925050819055507f02015d0dc0e66d598061bb3cad166b7139e6a3fe7fe69acb3027044f21168caf600054426040516100ca929190610205565b60405180910390a1565b6000805411610118576040517f08c379a000000000000000000000000000000000000000000000000000000000815260040161010f9061028b565b60405180910390fd5b600160008082825461012a91906102ab565b925050819055507f02015d0dc0e66d598061bb3cad166b7139e6a3fe7fe69acb3027044f21168caf60005442604051610164929190610205565b60405180910390a1565b6000819050919050565b6101818161016e565b82525050565b600060208201905061019c6000830184610178565b92915050565b7f4e487b7100000000000000000000000000000000000000000000000000000000600052601160045260246000fd5b60006101dc8261016e565b91506101e78361016e565b92508282019050808211156101ff576101fe6101a2565b5b92915050565b600060408201905061021a6000830185610178565b6102276020830184610178565b9392505050565b600082825260208201905092915050565b7f436f756e742063616e2774206265206c657373207468656e2061207a65726f00600082015250565b6000610275601f8361022e565b91506102808261023f565b602082019050919050565b600060208201905081810360008301526102a481610268565b9050919050565b60006102b68261016e565b91506102c18361016e565b92508282039050818111156102d9576102d86101a2565b5b9291505056fea26469706673582212206c8cf3d3a9535fa4baa5206c1e9844a9fbd2b7c6bc9fe2c5b698ed7721f034de64736f6c634300081c0033",
  "linkReferences": {},
  "deployedLinkReferences": {}
}